:040000008A15E82C49
:06000600000000000800EC
:0E000C00213083120313FD00FD0B0A280800AB
:10001A000F3083120313FC004730FD00FD0B132839
:0A002A00FC0B132800000000080082
:10003400831203179C1B21280313861123280313FF
:10004400861503171C1B2928031306112B280313D9
:10005400061503179C1A312803138610332803133B
:10006400861403171C1A3928031306103B2803139C
:100074000614831666184128831206164328831231
:10008400061286160320861203179C194C280313A4
:1000940086114E280313861503171C1954280313BD
:1000A400061156280313061503179C185C2803131E
:1000B40086105E280313861403171C186428031380
:1000C4000610662803130614831666186C28831218
:1000D40006166E28831206128616032086128316CD
:0C00E400661C76280D20772806200800F6
:1000F000063083120313FD00FD0B7C28000008006E
:1001000083120317970199019A0110309B00043064
:100110001A020318B528F030031388008030F0006D
:100120007008083E840003171B09F0007008800067
:10013000032003200F3003130805F0007008031795
:10014000980070080319AF281908970018080319B8
:10015000AD28980C9813970AA62804309A009B0D96
:100160001B10043099079A0A87281708F000080026
:10017000710DF80DF90D7408F8027508031C750F60
:10018000F902F00DF10D0F30FC00710DF80DF90DB5
:100190007408701CD128F8027508031C750FF90249
:1001A000D628F80775080318750FF907F00DF10D3B
:1001B000FC0BC5287018E2287408F80775080318A6
:0801C000750FF90700000800AB
:1001C8008316031366108312031717089C001A205E
:0601D80083166614080006
:1001DE00012980308312031794001429C030940033
:1001EE001429943094001429D430940014298030AA
:1001FE0094001429831203171408013A0319F028E6
:10020E001408023A0319F5281408033A0319F828BA
:10021E001408043A0319FB28FE281503F0001408ED
:10022E00F0077008940070089C001A208316661060
:10023E00EF016F08831203171607840000080319D5
:10024E003429831603136F088312031716078400CD
:10025E0000089700E420EF0A202983160313661482
:02026E00080086
:10027000831203132230FC00F801F901FA01FB019B
:10028000FC0303196E290310FB0CFA0CF90CF80C93
:10029000F30CF20CF10CF00C031C4029FC030319C5
:1002A00060297408F80775080318750FF9077608B0
:1002B0000318760FFA0777080318770FFB0744290E
:1002C0007408F80775080318750FF90776080318FE
:0E02D000760FFA0777080318770FFB07080070
:1002DE0083120313FB01FA01F9018030F800F10CCF
:1002EE00F00C031C83297408F90775080318750FA1
:1002FE00FA070318FB0A0310F01F8B297408FA077C
:10030E0075080318750FFB07FB0CFA0CF90CF80CAB
:10031E00031C76297B08F3007A08F2007908F100B5
:06032E007808F000080051
:10033400831203137408003A031DA9297508003AAF
:10034400031DA929FF30F0007F30F100022A831237
:100354000313FD01F901F801710870040319003455
:1003640071087506FA00FA1BFD09FB01F51FBF2988
:10037400F409F509F40A0319F50AF11FC629F0096D
:10038400F109F00A0319F10A71087504FA00FA1B5D
:10039400DB29B8207B18EE29FD1F0034F009F10990
:1003A400F00A0319F10AF809F909F80A0319F90A14
:1003B4000034F51FEA29F11BE6297108F9007008D9
:1003C400F800F101F001CE29F101F001F00A003446
:1003D400F109F009FB0ACB29F80A0319F90A740890
:1003E4007802031DCE2975087902031DCE29F9016F
:1003F400F801F00A0319F10AF11FCE290000FF34B5
:020404000800EE
:100406008020700883160313EF000F30831208054F
:10041600F0000319102A7820082A83166F08F000C6
:020426000800CC
:1004280083120313051E242A6E08003A031D232A8B
:100438000130EE000130F0000030F100272A252AB3
:08044800EE01F001F1010800D2
:0E0450008316031368088A00670882000800FC
:10045E0083160313EC01ED01013083120317900094
:10046E00003091000030920000309300103083165F
:10047E000313EE000130831203179C001A20013083
:10048E00031794000130950056309600EF20142289
:10049E00700871040319592A83166C08F0006D0850
:1004AE00F100EB2E03227008EB00700803194E2AA0
:1004BE00CA2A0230831203179400831603136E08A0
:1004CE00831203179500D6309600EF20EE038312A9
:1004DE0003171008F0001108F1001208F2001308BB
:1004EE00F300831603136908F4006A08F500003060
:1004FE00F51BFF30F600F700382170080317900047
:10050E00710891007208920073089300D42A831226
:10051E00031702309400831603136E088312031719
:10052E009500D8309600EF20EE03831203171008C3
:10053E0083160313EC078312031711080318013EE9
:10054E0083160313ED07831203171008F00011082A
:10055E00F1001208F2001308F30083160313690862
:10056E00F4006A08F5000030F51BFF30F600F700C6
:10057E0038217008031790007108910072089200DC
:10058E0073089300D42A831603136B080E3A0319CB
:10059E00602A6B08013A03198E2A831603138030E2
:1005AE006E06F0008030063A70020318E32A6C08DB
:1005BE00F0006D08F100EB2E00306A06031DE92AEB
:1005CE0002306906031DEC2A4E2A6E2C023083126D
:1005DE0003179400831603136E08831203179500F6
:1005EE00D2309600EF20EE03831203171008F000AE
:1005FE001108F100F00DF10D701070088316031341
:10060E00EC0771080318013EED078312031710085B
:10061E00F0001108F1001208F2001308F30083161F
:10062E0003136908F4006A08F5000030F51BFF306B
:10063E00F600F7003821700803179000710891003A
:10064E007208920073089300882C831203170230ED
:10065E009400831603136E08831203179500D4308B
:10066E009600EF20EE03831203171008F000110816
:10067E00F1000330F4000030F5006F21700883168E
:10068E00EC0771080318013EED07831203171008DB
:10069E00F0001108F1001208F2001308F30083169F
:1006AE0003136908F4006A08F5000030F51BFF30EB
:1006BE00F600F700382170080317900071089100BA
:1006CE007208920073089300882C8312031702306D
:1006DE009400831603136E08831203179500DE3001
:1006EE009600EF20EE03831203171008F000110896
:1006FE00F100F00DF10D7010F00DF10D701070088D
:10070E0083160313EC0771080318013EED078312DD
:10071E0003171008F0001108F1001208F200130878
:10072E00F300831603136908F4006A08F50000301D
:10073E00F51BFF30F600F700382170080317900004
:10074E00710891007208920073089300882C83122E
:10075E00031702309400831603136E0883120317D7
:10076E009500E0309600EF20EE0383120317100879
:10077E00F0001108F1000530F4000030F5006F2193
:10078E0070088316EC0771080318013EED078312FB
:10079E0003171008F0001108F1001208F2001308F8
:1007AE00F300831603136908F4006A08F50000309D
:1007BE00F51BFF30F600F700382170080317900084
:1007CE00710891007208920073089300882C8312AE
:1007DE00031702309400831603136E088312031757
:1007EE009500DA309600EF20EE03831203171008FF
:1007FE00F0001108F1000630F4000030F5006F2112
:10080E0070088316EC0771080318013EED0783127A
:10081E0003171008F0001108F1001208F200130877
:10082E00F300831603136908F4006A08F50000301C
:10083E00F51BFF30F600F700382170080317900003
:10084E00710891007208920073089300882C83122D
:10085E00031702309400831603136E0883120317D6
:10086E009500DC309600EF20EE038312031710087C
:10087E00F0001108F1000730F4000030F5006F2190
:10088E0070088316EC0771080318013EED078312FA
:10089E0003171008F0001108F1001208F2001308F7
:1008AE00F300831603136908F4006A08F50000309C
:1008BE00F51BFF30F600F700382170080317900083
:1008CE00710891007208920073089300882C8316A9
:1008DE0003136B08023A0319ED2A6B08033A031946
:1008EE002C2B6B08053A03196C2B6B08063A03196F
:1008FE00AE2B6B08073A0319EE2B6B08093A031956
:10090E002E2C8316031380306E06F0008030063ACC
:10091E0070020318972C6C08F0006D08F100EB2E96
:10092E0000306A06031D9D2C08306906031DA02C9D
:10093E004E2A272D023083120317940083160313B9
:10094E006E08831203179500D0309600EF20EE0349
:10095E000330F200831203171008F0001108F100A3
:10096E0072080319BF2CF00DF10D7010FF3EB82C5C
:10097E00700883160313EC0771080318013EED0788
:10098E00831203171008F0001108F1001208F2008C
:10099E001308F300831603136908F4006A08F500C0
:1009AE000030F51BFF30F600F700382170080317F2
:1009BE009000710891007208920073089300312D17
:1009CE008312031702309400831603136E088312EA
:1009DE0003179500C6309600EF20EE03831203171F
:1009EE001008F0001108F1000930F4000030F50095
:1009FE006F2170088316EC0771080318013EED078E
:100A0E00831203171008F0001108F1001208F2000B
:100A1E001308F300831603136908F4006A08F5003F
:100A2E000030F51BFF30F600F70038217008031771
:100A3E009000710891007208920073089300312D96
:100A4E00831603136B080A3A0319A12C6B080B3A91
:100A5E000319E72C8316031380306E06F0008030E6
:100A6E00063A70020318402D6C08F0006D08F10074
:100A7E00EB2EC12E0230831203179400831603133C
:100A8E006E08831203179500C8309600EF20EE0310
:100A9E00831203171008F0001108F1000A30F40059
:100AAE000030F5006F2170088316EC0771080318EB
:100ABE00013EED07831203171008F0001108F10034
:100ACE001208F2001308F300831603136908F400EA
:100ADE006A08F5000030F51BFF30F600F7003821EC
:100AEE007008031790007108910072089200730845
:100AFE009300DB2E83120317023094008316031328
:100B0E006E08831203179500C2309600EF20EE0395
:100B1E00831203171008F0001108F1000B30F400D7
:100B2E000030F5006F2170088316EC07710803186A
:100B3E00013EED07831203171008F0001108F100B3
:100B4E001208F2001308F300831603136908F40069
:100B5E006A08F5000030F51BFF30F600F70038216B
:100B6E0070080317900071089100720892007308C4
:100B7E009300DB2E831203170230940083160313A7
:100B8E006E08831203179500C4309600EF20EE0313
:100B9E00831203171008F0001108F1000C30F40056
:100BAE000030F5006F2170088316EC0771080318EA
:100BBE00013EED07831203171008F0001108F10033
:100BCE001208F2001308F300831603136908F400E9
:100BDE006A08F5000030F51BFF30F600F7003821EB
:100BEE007008031790007108910072089200730844
:100BFE009300DB2E83120317023094008316031327
:100C0E006E08831203179500CC309600EF20EE038A
:100C1E00831203171008F0001108F1000D30F400D4
:100C2E000030F5006F2170088316EC077108031869
:100C3E00013EED07831203171008F0001108F100B2
:100C4E001208F2001308F300831603136908F40068
:100C5E006A08F5000030F51BFF30F600F70038216A
:100C6E0070080317900071089100720892007308C3
:100C7E009300DB2E831203170230940083160313A6
:100C8E006E08831203179500CE309600EF20EE0308
:100C9E00831203171008F0001108F1000E30F40053
:100CAE000030F5006F2170088316EC0771080318E9
:100CBE00013EED07831203171008F0001108F10032
:100CCE001208F2001308F300831603136908F400E8
:100CDE006A08F5000030F51BFF30F600F7003821EA
:100CEE007008031790007108910072089200730843
:100CFE009300DB2E83120317023094008316031326
:100D0E006E08831203179500CA309600EF20EE038B
:100D1E00831203171008F0001108F1000F30F400D1
:100D2E000030F5006F2170088316EC077108031868
:100D3E00013EED07831203171008F0001108F100B1
:100D4E001208F2001308F300831603136908F40067
:100D5E006A08F5000030F51BFF30F600F700382169
:100D6E0070080317900071089100720892007308C2
:100D7E009300DB2E831603136B08043A0319412DDF
:100D8E006B08083A0319812D6B080C3A0319C12D13
:100D9E006B08103A0319012E6B080F3A0319412EF6
:100DAE006B080D3A0319812E8316031380306E06DD
:100DBE00F0008030063A70020318EA2E6C08F0003C
:0A0DCE006D08F100EB2E4E2A08001C
:100DD800093083160313ED000030EE008312AA01D8
:100DE800FF3083166E06031DFB2EFF306D060319B8
:100DF800A42F6B08F4006C08F5006908F0006A0875
:100E0800F1009A217808F0007908F10070080317BA
:100E18009100710892005E2F831603136D08203E1F
:100E28008400413080008F2F831603136D08203E05
:100E38008400423080008F2F831603136D08203EF4
:100E48008400433080008F2F831603136D08203EE3
:100E58008400443080008F2F831603136D08203ED2
:100E68008400453080008F2F831603136D08203EC1
:100E78008400463080008F2F831603136D08203EB0
:100E8800831203179000831603136B08F4006C0891
:100E9800F5006908F0006A08F1009A217808F00066
:100EA8007908F1003030F007031710088400700843
:100EB80080008F2F00301206031D642F0A301106A0
:100EC8000319102F00301206031D6C2F0B3011066A
:100ED8000319182F00301206031D742F0C30110649
:100EE8000319202F00301206031D7C2F0D30110628
:100EF8000319282F00301206031D842F0E30110607
:100F08000319302F00301206031D8C2F0F301106E5
:100F18000319382F402F013083160313ED02031CE9
:100F2800EE036B08F4006C08F5006908F0006A0825
:100F3800F1009A2170088316E9007108EA00F42E7E
:020F480008009F
:100F4A00803083120313F0007008083E8400FF30DB
:040F5A00800008000B
:100F5E00D82F8312031360086207F000630803188A
:100F6E00013E6107F100EA2F60086202F00061089D
:100F7E00031C013E6302F100EA2F6008F4006108D1
:100F8E00F5006208F0006308F1009A21EA2F62086A
:100F9E00F0006308F1006008F4006108F5006F21AD
:100FAE00EA2F831203135F08003A0319B02F5F086C
:100FBE00013A0319BB2F5F08023A0319C42F5F08C9
:080FCE00033A0319CE2F0800BD
:100FD60028228A110A128000840AE70A0319E80AFD
:080FE600F003031DEB2F0800CE
:101000008316031386120612061086100611861127
:1010100083128612061286110611861006108A1196
:101020000D208A158A110D208A158A110D208A1526
:101030008614061486168A1103208A1586128A11D0
:101040000D208A1586168A1103208A1586128A11A8
:101050000D208A1586168A1103208A1586128A1198
:101060000D208A15061086168A1103208A1586120D
:101070008A110D208A1586168A1103208A15861278
:101080008610861586168A1103208A1586128A1103
:101090000D208A158611061486168A1103208A15DA
:1010A0008612061086168A1103208A1586128A1166
:1010B0000D208A1586168A1103208A1586120614B9
:1010C00086168A1103208A1586128A110D208A1528
:1010D000061086168A1103208A15861286150615B3
:1010E0008614061486168A1103208A1586128A1120
:0A10F0000D208A158316661408000F
:1010FA008A1103228A157008013A031DCF2801308C
:10110A00831203179C008A111A208A1583166A080B
:10111A00F0006B08F100F00DF10D70107008E23E5E
:10112A00F200720884000008F000840A0008F10046
:10113A00F00A0319F10A7208840070088000710825
:10114A00840A80006A08F0006B08F100F00DF10DC6
:10115A0070107008E23E84000008F100840A00085A
:10116A00F2008030F000803072067002031DBF2842
:10117A007108033C0318CE286A08F0006B08F100D6
:10118A00F00DF10D70107008E23E84008001840AAF
:10119A008001DB288A1114228A1570087104031948
:1011AA00DB280130F0000030F100152983120130EC
:1011BA0003179400013095008316031369088312FC
:1011CA00031796008A11EF208A150230831203173B
:1011DA00940001309500831603136A08F0006B0827
:1011EA00F100F00DF10D70107008E23E8400000865
:1011FA00F300840A0008F4007308F0007408F10090
:10120A00F00DF10D7010F00DF10D70107008A03E88
:10121A008312031796008A11EF208A15F001F10153
:02122A000800BA
:10122C0058298312031362088316E900831263089A
:10123C008316EA000230EB000030EC008A11EC2639
:10124C008A157A29831262088316E90083126308CF
:10125C008316EA000A30EB000030EC008A11EC2611
:10126C008A157A29831262088316E90083126308AF
:10127C008316EA000830EB000030EC008A11EC26F3
:10128C008A157A29831262088316E900831263088F
:10129C008316EA001030EB000030EC008A11EC26CB
:1012AC008A157A298316031300306506031D6029FD
:1012BC00003064060319172900306506031D6829E0
:1012CC00013064060319282900306506031D7029B6
:1012DC00023064060319382900306506031D78298D
:1012EC0003306406031948290130831203179C004C
:1012FC008A111A208A1502300317940001309500C8
:0C130C00203096008A11EF208A1508009E
:101318008A1103228A157008013A031DA529013094
:10132800831203179C008A111A208A15DF0A80305D
:10133800033AF00080305F0670020318A429DF0129
:10134800AD298A1114228A15700871040319AD2970
:10135800CA29013003179400013095002C309600FB
:101368008A11EF208A150230831203179400013086
:10137800950003135F08F000F00D70107008363EFA
:0E138800031796008A11EF208A158C290800A1
:10139600B42A1A2A8312031362088316E9008312F9
:1013A60063088316EA00E90DEA0D69100230EB00C6
:1013B6000030EC008A11EC268A153C2A831262085A
:1013C6008316E900831263088316EA00E90DEA0D25
:1013D60069100A30EB000030EC008A11EC268A1501
:1013E6003C2A831262088316E90083126308831677
:1013F600EA00E90DEA0D69100830EB000030EC0058
:101406008A11EC268A153C2A831262088316E900A3
:10141600831263088316EA00E90DEA0D691010309D
:10142600EB000030EC008A11EC268A153C2A831664
:10143600031300306306031D222A003062060319D7
:10144600CD2900306306031D2A2A013062060319DE
:10145600E12900306306031D322A023062060319B1
:10146600F42900306306031D3A2A03306206031985
:10147600072ABE2A922A831262088316E90083127B
:1014860063088316EA00EA0CE90CEA136A1BEA17FA
:101496000230EB000030EC008A11EC268A15B32AE4
:1014A600831262088316E900831263088316EA0032
:1014B600EA0CE90CEA136A1BEA170A30EB00003063
:1014C600EC008A11EC268A15B32A83126208831669
:1014D600E900831263088316EA00EA0CE90CEA13B2
:1014E6006A1BEA170830EB000030EC008A11EC2684
:1014F6008A15B32A831262088316E90083126308E9
:101506008316EA00EA0CE90CEA136A1BEA171030A4
:10151600EB000030EC008A11EC268A15B32A8316FC
:1015260000306306031D992A0030620603193E2A1D
:1015360000306306031DA12A013062060319532AEF
:1015460000306306031DA92A023062060319682AC1
:1015560000306306031DB12A0330620603197D2A93
:10156600BE2A831203132B08003A0319CC292B0831
:10157600013A03193D2A8312013003179C008A1190
:101586001A208A1502300317940001309500203086
:0A15960096008A11EF208A15080064
:1015A000831203136F08003A0319DB2A6F08023A0B
:1015B0000319DB2AE92AB0308316E900EA01EB01BE
:1015C0007D208312031370087104031DE82ADB2AAF
:1015D000052BB9308316E900EA01EB017D20831267
:1015E000031370087104031DF62AE92A6430831678
:1015F000E9000130EA000030EB007D208312031384
:0C16000070087104031D052BF62A080079
:10160C00831603178501860188010020013083129F
:10161C0003179C008A111A208A150C3003179C00A2
:0E162C008A111A208A158A11A5278A1508002E
:10163A00362B0230831203179400013095005B3079
:10164A0096008A11EF208A15402B02308312031765
:10165A009400013095005D3096008A11EF208A15BA
:10166A00402B831203132B08003A03191E2B2B0855
:10167A00013A03192A2B8A1103228A157008013AA2
:10168A00031D592B0130831203179C008A111A205B
:10169A008A15AB0A8030013AF00080302B067002BE
:1016AA000318582BAB01612B8A1114228A15700872
:1016BA0071040319612B6C2B01300317940001305C
:1016CA009500503096008A11EF208A151D2B0800CC
:1016DA000130831203179C008A111A208A158A1175
:1016EA0003228A157008013A031D8D2B01308312DB
:1016FA0003179C008A111A208A15EF0A8030023AD1
:10170A00F00080306F06700203188C2BEF01952BC6
:10171A008A1114228A15700871040319952BD22B89
:10172A0001300317940001309500503096008A1159
:10173A00EF208A15C42B023083120317940001305C
:10174A0095003E3096008A11EF208A15D12B02307F
:10175A0083120317940001309500443096008A11D1
:10176A00EF208A15D12B023083120317940001301F
:10177A0095004A3096008A11EF208A15D12B8312E0
:10178A006F08003A0319A02B6F08013A0319AC2B12
:0C179A006F08023A0319B82B742B0800EA
:1017A600831203136F08013A0319DE2B6F08023AFE
:1017B6000319DE2B3D2C003083166306031DE52B33
:1017C60000306206031DF42B0230E9000030EA0007
:1017D6008A112F228A1570088312E2007108E3002D
:1017E600352C003083166306031DFB2B0130620681
:1017F600031D0A2C0A30E9000030EA008A112F2264
:101806008A1570088312E2007108E300352C003057
:1018160083166306031D112C02306206031D202C5D
:101826000830E9000030EA008A112F228A15700874
:101836008312E2007108E300352C0030831663063C
:10184600031D272C03306206031D352C1030E900DA
:101856000030EA008A112F228A1570088312E200EE
:101866007108E3008312013003179C008A111A20C5
:101876008A15E72C003083166306031D442C0030BE
:101886006206031D662C0230E9000030EA008A1168
:101896002F228A1570088312E2007108E3000130D6
:1018A60003179C008A111A208A1502308316E90054
:1018B6000030EA008A112F228A1570088312E00090
:1018C6007108E100E02C003083166306031D6D2CC1
:1018D60001306206031D8F2C0A30E9000030EA0051
:1018E6008A112F228A1570088312E2007108E3001C
:1018F600013003179C008A111A208A150A308316B4
:10190600E9000030EA008A112F228A157008831236
:10191600E0007108E100E02C003083166306031D29
:10192600962C02306206031DB82C0830E900003000
:10193600EA008A112F228A1570088312E2007108C4
:10194600E300013003179C008A111A208A1508301B
:101956008316E9000030EA008A112F228A157008E2
:101966008312E0007108E100E02C00308316630664
:10197600031DBF2C03306206031DE02C1030E90066
:101986000030EA008A112F228A1570088312E200BD
:101996007108E300013003179C008A111A208A158A
:1019A60010308316E9000030EA008A112F228A15CA
:1019B60070088312E0007108E100831201300317FA
:0A19C6009C008A111A208A150800FF
:1019D0002A2606236D230130831203179C008A11E7
:1019E0001A208A15D022D3237C2D8C21372D8A11E1
:1019F000AF278A1570088316E9007108EA000230E3
:101A0000EB000030EC008A11EC268A15592D8A1162
:101A1000AF278A1570088316E9007108EA000A30BA
:101A2000EB000030EC008A11EC268A15592D8A1142
:101A3000AF278A1570088316E9007108EA0008309C
:101A4000EB000030EC008A11EC268A15592D8A1122
:101A5000AF278A1570088316E9007108EA00103074
:101A6000EB000030EC008A11EC268A15592D831604
:101A7000031300306306031D3F2D00306206031977
:101A8000F72C00306306031D472D01306206031951
:101A9000072D00306306031D4F2D02306206031927
:101AA000172D00306306031D572D033062060319FE
:101AB000272D0130831203179C008A111A208A15E2
:101AC00002300317940001309500203096008A11EF
:101AD000EF208A15892D1621892D1D2301308312AF
:101AE00003179C008A111A208A152B0803197A2DD6
:101AF000CB217B2DCB21892D83126F08003A03194E
:101B0000F52C6F08013A03196B2D6F08023A03197F
:101B10006D2D8A1114228A1570087104031D912DF0
:061B2000892DEA2C922D34
:101C540020308400423083120313F000983083163E
:101C6400E7000D30E8008A11EB278A15A0308400C4
:101C7400103083120313F0000C308316E7000E308B
:101C8400E8008A11EB278A15623084000D30831234
:101C94000313F0001C308316E7000E30E8008A11AD
:101CA400EB278A15B0308400323083120313F0001E
:101CB400DA308316E7000D30E8008A11EB278A1525
:101CC4006F308400013083120313F000F730831661
:0E1CD400E7000730E8008A11EB278A150800A8
:020FEE000034CD
:101B30000034003400340034003400340034003405
:061B400000340034003403
:021B4600003469
:101B48004F34703465347234613463346A346134C8
:041B58003A340034E7
:101B5C002B3400342D3400342F3400342A34003428
:101B6C0041345234493454340034003443344F3407
:101B7C004E345634003400345334483449344634EB
:101B8C00003400344D344F34443445343A3400344A
:0A1B9C004E3455344D343A34003411
:041BA6004C34003487
:041BAA00523400347D
:021BAE00003401
:041BB00000340034C9
:101BB40049344E34203454345934503445343A344E
:021BC4000034EB
:101BC60049344E34203454345934503445343A343C
:021BD6000034D9
:041BD800423400345F
:041BDC00433400345A
:041BE0003934003460
:041BE4004134003454
:041BE800463400344B
:041BEC004434003449
:041BF0004534003444
:041BF400383400344D
:041BF800323400344F
:041BFC00333400344A
:041C00003034003448
:041C04003134003443
:041C0800363400343A
:041C0C003734003435
:041C10003434003434
:041C1400353400342F
:101C1800423449344E340034443445344334003477
:101C28004F34433454340034483445345834003441
:041C38000034003440
:101C3C004F3455345434203454345934503445349E
:041C4C003A340034F2
:021C500000345E
:04400E00F23F30004D
:00000001FF
