:040000008A15B52D7B
:06000600000000000800EC
:0E000C00213083120313FD00FD0B0A280800AB
:10001A000F3083120313FC004730FD00FD0B132839
:0A002A00FC0B132800000000080082
:1000340083160313ED1B21288312861123288312B0
:10004400861583166D1B2928831206112B2883120B
:1000540006158316ED1A312883128610332883126D
:10006400861483166D1A3928831206103B288312CE
:10007400061483163818412883120616432883125F
:1000840006128616032086128316ED194C28831255
:1000940086114E288312861583166D1954288312EF
:1000A40006115628831206158316ED185C28831250
:1000B40086105E288312861483166D1864288312B2
:1000C4000610662883120614831638186C288312C7
:1000D40006166E28831206128616032086128316CD
:0C00E400381C76280D2077280620080024
:1000F000063083120313FD00FD0B7C28000008006E
:1001000083160313E801EA01EB011030EC00043020
:100110006B020318B828F030831288008030F0009A
:100120007008083E840083166C098312F000700882
:100130008000032003200F300805F00070088316AC
:10014000E900831270080319B12883166A08E800D1
:1001500069080319AF28E90CE913E80AA828043054
:10016000EB008316EC0D6C100430EA07EB0A8728CD
:0801700068088312F00008008A
:10017800710DF80DF90D7408F8027508031C750F58
:10018800F902F00DF10D0F30FC00710DF80DF90DAD
:100198007408701CD528F8027508031C750FF9023D
:1001A800DA28F80775080318750FF907F00DF10D2F
:1001B800FC0BC9287018E6287408F8077508031896
:0801C800750FF90700000800A3
:1001D0008316031338106808ED001A2083163814AC
:0201E000080015
:1001E2000329803083160313E4001629C030E4008B
:1001F20016299430E4001629D430E4001629803000
:10020200E4001629831603136408013A0319F2283D
:100212006408023A0319F7286408033A0319FA2812
:100222006408043A0319FD28002965038312F000CB
:10023200831664088312F00770088316E4008312A1
:1002420070088316ED001A2083163810E70167083C
:1002520066078400000803193629670866078400C8
:0E0262000008E800E820E70A28293814080000
:10027000831203132230FC00F801F901FA01FB019B
:10028000FC0303196E290310FB0CFA0CF90CF80C93
:10029000F30CF20CF10CF00C031C4029FC030319C5
:1002A00060297408F80775080318750FF9077608B0
:1002B0000318760FFA0777080318770FFB0744290E
:1002C0007408F80775080318750FF90776080318FE
:0E02D000760FFA0777080318770FFB07080070
:1002DE0083120313FB01FA01F9018030F800F10CCF
:1002EE00F00C031C83297408F90775080318750FA1
:1002FE00FA070318FB0A0310F01F8B297408FA077C
:10030E0075080318750FFB07FB0CFA0CF90CF80CAB
:10031E00031C76297B08F3007A08F2007908F100B5
:06032E007808F000080051
:10033400831203137408003A031DA9297508003AAF
:10034400031DA929FF30F0007F30F100022A831237
:100354000313FD01F901F801710870040319003455
:1003640071087506FA00FA1BFD09FB01F51FBF2988
:10037400F409F509F40A0319F50AF11FC629F0096D
:10038400F109F00A0319F10A71087504FA00FA1B5D
:10039400DB29BC207B18EE29FD1F0034F009F1098C
:1003A400F00A0319F10AF809F909F80A0319F90A14
:1003B4000034F51FEA29F11BE6297108F9007008D9
:1003C400F800F101F001CE29F101F001F00A003446
:1003D400F109F009FB0ACB29F80A0319F90A740890
:1003E4007802031DCE2975087902031DCE29F9016F
:1003F400F801F00A0319F10AF11FCE290000FF34B5
:020404000800EE
:10040600802070088316E4000F3083120805F00080
:1004160003190F2A7820072A831664088312F0002E
:020426000800CC
:1004280083120313051E242A3508003A031D232AC4
:100438000130B5000130F0000030F100272A252AEC
:08044800B501F001F10108000B
:0E045000831603133A088A0039088200080058
:10045E00093083160313D7000030D8008312B4017D
:10046E00FF3083165806031D3E2AFF305706031928
:10047E00EF2A55088312F400831656088312F500EE
:10048E00831653088312F000831654088312F1006A
:10049E009A217808F0007908F10070088316DA00C6
:1004AE00831271088316DB00A02A57082A3E8400A7
:1004BE0041308000D22A57082A3E84004230800004
:1004CE00D22A57082A3E840043308000D22A570889
:1004DE002A3E840044308000D22A57082A3E8400E7
:1004EE0045308000D22A57082A3E840046308000CC
:1004FE00D22A57082A3ED90055088312F4008316D3
:10050E0056088312F500831653088312F0008316E3
:10051E0054088312F1009A217808F0007908F1004E
:10052E003030F0078316590884008312700880005B
:10053E00D22A003083165B06031DA72A0A305A06FC
:10054E0003195C2A00305B06031DAF2A0B305A06D6
:10055E000319622A00305B06031DB72A0C305A06B7
:10056E000319682A00305B06031DBF2A0D305A0698
:10057E0003196E2A00305B06031DC72A0E305A0679
:10058E000319742A00305B06031DCF2A0F305A065A
:10059E0003197A2A802A83160130D702031CD80346
:1005AE0055088312F400831656088312F50083163D
:1005BE0053088312F000831654088312F1009A2117
:1005CE0070088316D300831271088316D400372A5D
:0205DE00080013
:1005E000803083120313F0007008083E8400FF304F
:0405F000800008007F
:1005F400831603138612061206108610061186113E
:1006040083128612061286110611861006100D201A
:100614000D200D20861406148616032086120D2044
:100624008616032086120D208616032086120D20BE
:1006340006108616032086120D20861603208612C5
:10064400861086158616032086120D208611061440
:1006540086160320861206108616032086120D20A5
:1006640086160320861206148616032086120D2091
:10067400061086160320861286150615861406149F
:0E0684008616032086120D20831638140800F7
:10069200423083160313D4004930D5004E30D600C1
:1006A200D7014430D8004530D9004330DA00DB01AD
:1006B2004F30DC004330DD005430DE00DF014830D3
:1006C200E0004530E1005830E200E3010322700807
:1006D200013A031DB32B01308316ED001A2059088D
:1006E200F0005A08F100F00DF10D70107008B43EE0
:1006F200F200720884000008F000840A0008F10089
:10070200F00A0319F10A7208840070088000710867
:10071200840A80005908F0005A08F100F00DF10D2A
:1007220070107008B43E84000008F100840A0008CA
:10073200F2008030F000803072067002031DA32B9D
:100742007108033C0318B22B5908F0005A08F10053
:10075200F00DF10D70107008B43E84008001840A1F
:100762008001B92B1422700871040319B92BE52BEF
:1007720001308316E4000130E5005308E600F12061
:100782000230E4000130E50083125908F0005A08F3
:10079200F100F00DF10D70107008B43E84000008F5
:1007A200F300840A0008F4007308F0007408F100F2
:1007B200F00DF10D7010F00DF10D70107008D43EB7
:0A07C2008316E600F120672B080003
:1007CC000F2C8312031343084107F000420803184F
:1007DC00013E4407F100212C43084102F00044087B
:1007EC00031C013E4202F100212C4308F400440892
:1007FC00F5004108F0004208F1009A21212C410833
:10080C00F0004208F1004308F4004408F5006F21A1
:10081C00212C831203133608003A0319E72B3608F0
:10082C00013A0319F22B3608023A0319FB2B36084E
:08083C00033A0319052C080022
:100844005C2C8312031341088316D30083124208DD
:100854008316D4000230D5000030D6002F227E2C1F
:10086400831241088316D300831242088316D400EE
:100874000A30D5000030D6002F227E2C8312410886
:100884008316D300831242088316D4000830D5009F
:100894000030D6002F227E2C831241088316D30009
:1008A400831242088316D4001030D5000030D600DD
:1008B4002F227E2C8316031300303706031D642C6D
:1008C400003036060319232C00303706031D6C2C28
:1008D400013036060319322C00303706031D742C00
:1008E400023036060319402C00303706031D7C2CD9
:1008F4000330360603194E2C0130ED001A20023065
:100904008316E4000130E5002A30E600F1200800F7
:100914002B3083160313BB00BC012D30BD00BE0178
:100924002F30BF00C0012A30C100C2010322700869
:10093400013A031DAC2C01308316ED001A20B60ACF
:100944008030033AF0008030360670020318AB2C76
:10095400B601B22C1422700871040319B22CC92CEC
:1009640001308316E4000130E5002030E600F12078
:100974000230E4000130E50083123608F000F00D87
:1009840070107008BB3E8316E600F120982C080016
:10099400A32D112D8312031341088316D300831250
:1009A40042088316D400D30DD40D53100230D50061
:1009B4000030D6002F22332D831241088316D30032
:1009C400831242088316D400D30DD40D53100A3079
:1009D400D5000030D6002F22332D83124108831610
:1009E400D300831242088316D400D30DD40D5310C0
:1009F4000830D5000030D6002F22332D8312410851
:100A04008316D300831242088316D400D30DD40D69
:100A140053101030D5000030D6002F22332D83160A
:100A2400031300303506031D192D00303406031955
:100A3400CC2C00303506031D212D0130340603195A
:100A4400DE2C00303506031D292D0230340603192F
:100A5400EF2C00303506031D312D03303406031905
:100A6400002DAD2D812D831241088316D3008312EE
:100A740042088316D400D40CD30CD413541BD417BB
:100A84000230D5000030D6002F22A22D8312410857
:100A94008316D300831242088316D400D40CD30CDB
:100AA400D413541BD4170A30D5000030D6002F229B
:100AB400A22D831241088316D300831242088316A1
:100AC400D400D40CD30CD413541BD4170830D50041
:100AD4000030D6002F22A22D831241088316D300A2
:100AE400831242088316D400D40CD30CD413541BA1
:100AF400D4171030D5000030D6002F22A22D831633
:100B040000303506031D882D003034060319352DB9
:100B140000303506031D902D013034060319482D8D
:100B240000303506031D982D0230340603195B2D61
:100B340000303506031DA02D0330340603196E2D35
:100B4400AD2D831203133E08003A0319CB2C3E0843
:100B5400013A0319342D01308316ED001A200230B6
:100B64008316E4000130E5002A30E600F120080095
:100B7400831203134508003A0319C52D4508023AA8
:100B84000319C52DCC2DD901DA015B308316D300AE
:100B94004923DE2D83120313D901DA01463083166B
:100BA400D3004923013083120313D9000030DA0043
:0A0BB4004F308316D30049230800D8
:100BBE00F022FA220130ED001A200C308316ED00DF
:040BCE001A200800E1
:100BD2004D3083160313BB004F30BC004430BD00C0
:100BE2004530BE003A30BF00C001092E83160230E4
:100BF200E4000130E5003F30E600F120122E8316BA
:100C02000230E4000130E5003730E600F120122E18
:100C120083123E08003A0319F72D3E08013A0319E0
:100C2200002E03227008013A031D262E013083167E
:100C3200ED001A20BE0A8030013AF00080303E06F4
:100C420070020318252EBE012C2E14227008710486
:100C520003192C2E352E01308316E4000130E500F5
:0A0C6200BB30E600F120F62D08007B
:100C6C0028228A110A128000840AB90A0319BA0AC6
:0A0C7C008312F003031D362E08005A
:100C8600413083160313BB005230BC004930BD000F
:100C96005430BE00BF01C0014330C1004F30C20016
:100CA6004E30C3005630C400C501C6015330C700DC
:100CB6004830C8004930C9004630CA00CB01CC01D3
:100CC6004D30CD004F30CE004430CF004530D000FF
:100CD6003A30D100D2010130ED001A20032270080B
:100CE600013A031D852E01308316ED001A20C50A30
:100CF6008030023AF0008030450670020318842ED8
:100D0600C5018B2E14227008710403198B2EBD2E7B
:100D160001308316E4000130E500CD30E600F12015
:100D2600AF2E83160230E4000130E500BB30E6004A
:100D3600F120BC2E83160230E4000130E500C130FC
:100D4600E600F120BC2E83160230E4000130E500F7
:100D5600C730E600F120BC2E83124508003A03197D
:100D6600942E4508013A03199D2E4508023A0319A7
:060D7600A62E712E0800FC
:100D7C00831203134508013A0319C92E4508023A98
:100D8C000319C92E212F003083163506031DD02ED2
:100D9C0000303406031DDE2E0230D3000030D400A8
:100DAC008A1500208A117008C1007108C2001C2F1E
:100DBC00003083163506031DE52E01303406031D65
:100DCC00F32E0A30D3000030D4008A1500208A118B
:100DDC007008C1007108C2001C2F00308316350644
:100DEC00031DFA2E02303406031D082F0830D300E1
:100DFC000030D4008A1500208A117008C1007108D7
:100E0C00C2001C2F003083163506031D0F2F033034
:100E1C003406031D1C2F1030D3000030D4008A156B
:100E2C0000208A117008C1007108C20001308316BD
:100E3C00ED001A20B82F003083163506031D282F1D
:100E4C0000303406031D462F0230D3000030D4008E
:100E5C008A1500208A117008C1007108C200013087
:100E6C008316ED001A2002308316D3000030D40014
:100E7C008A1500208A117008C3007108C400B42FB1
:100E8C00003083163506031D4D2F01303406031D2B
:100E9C006B2F0A30D3000030D4008A1500208A1141
:100EAC007008C1007108C20001308316ED001A20D1
:100EBC000A308316D3000030D4008A1500208A1122
:100ECC007008C3007108C400B42F003083163506B7
:100EDC00031D722F02303406031D902F0830D300EF
:100EEC000030D4008A1500208A117008C1007108E6
:100EFC00C20001308316ED001A2008308316D3008F
:100F0C000030D4008A1500208A117008C3007108C3
:100F1C00C400B42F003083163506031D972F033001
:100F2C003406031DB42F1030D3000030D4008A15C2
:100F3C0000208A117008C1007108C20001308316AC
:100F4C00ED001A2010308316D3000030D4008A151F
:100F5C0000208A117008C3007108C4000130831688
:060F6C00ED001A20080050
:100F9C0020308400503083120313F0007D30831610
:100FAC00B9000E30BA003626A0308400143003137A
:100FBC00F000B9308316B9000730BA0036260800A5
:1010000083160313D601D7010130D8000030D90070
:101010000030DA000030DB001030DC000130ED0081
:101020008A111A208A1501308316E4000130E50088
:101030003930E6008A11F1208A158A1114228A15A6
:101040007008710403192D28831656088312F000C6
:10105000831657088312F100B42D8A1103228A15D2
:1010600070088316D5008312700803191D28B12853
:1010700002308316E4005C08E5006430E6008A1163
:10108000F1208A15DC0358088312F00083165908F2
:101090008312F10083165A088312F20083165B084C
:1010A0008312F300831653088312F4008316540846
:1010B0008312F5000030F51BFF30F600F7008A11AF
:1010C00038218A1570088316D80083127108831698
:1010D000D900831272088316DA008312730883160C
:1010E000DB00BA280230E4005C08E500A830E60026
:1010F0008A11F1208A15DC035808D607590803180D
:10110000013ED70758088312F0008316590883124E
:10111000F10083165A088312F20083165B088312CB
:10112000F300831653088312F400831654088312C5
:10113000F5000030F51BFF30F600F7008A1138216A
:101140008A1570088316D800831271088316D90097
:10115000831272088316DA00831273088316DB0089
:10116000BA28831655080E3A031938285508013A4B
:101170000319722880305C068312F0008030063A32
:1011800070020318CC28831656088312F0008316C9
:1011900057088312F100B42D003083165406031D46
:1011A000D32802305306031DD6281D28B22A023048
:1011B000E4005C08E500AA30E6008A11F1208A15F7
:1011C000DC0358088312F000831659088312F100DB
:1011D000F00DF10D701070088316D6078312710898
:1011E0000318013E8316D70758088312F0008316B0
:1011F00059088312F10083165A088312F2008316ED
:101200005B088312F300831653088312F4008316DD
:1012100054088312F5000030F51BFF30F600F7008C
:101220008A1138218A1570088316D8008312710834
:101230008316D900831272088316DA0083127308AA
:101240008316DB00CA2A0230E4005C08E500A43003
:10125000E6008A11F1208A15DC0358088312F00099
:10126000831659088312F1000330F4000030F500B2
:101270008A116F218A1570088316D60783127108A8
:101280000318013E8316D70758088312F00083160F
:1012900059088312F10083165A088312F20083164C
:1012A0005B088312F300831653088312F40083163D
:1012B00054088312F5000030F51BFF30F600F700EC
:1012C0008A1138218A1570088316D8008312710894
:1012D0008316D900831272088316DA00831273080A
:1012E0008316DB00CA2A0230E4005C08E500A63061
:1012F000E6008A11F1208A15DC0358088312F000F9
:10130000831659088312F100F00DF10D7010F00DE5
:10131000F10D701070088316D60783127108031838
:10132000013E8316D70758088312F0008316590828
:101330008312F10083165A088312F20083165B08A9
:101340008312F300831653088312F40083165408A3
:101350008312F5000030F51BFF30F600F7008A110C
:1013600038218A1570088316D800831271088316F5
:10137000D900831272088316DA0083127308831669
:10138000DB00CA2A0230E4005C08E500B030E60069
:101390008A11F1208A15DC0358088312F0008316A5
:1013A00059088312F1000530F4000030F5008A116D
:1013B0006F218A1570088316D607831271080318E7
:1013C000013E8316D70758088312F0008316590888
:1013D0008312F10083165A088312F20083165B0809
:1013E0008312F300831653088312F4008316540803
:1013F0008312F5000030F51BFF30F600F7008A116C
:1014000038218A1570088316D80083127108831654
:10141000D900831272088316DA00831273088316C8
:10142000DB00CA2A0230E4005C08E500B230E600C6
:101430008A11F1208A15DC0358088312F000831604
:1014400059088312F1000630F4000030F5008A11CB
:101450006F218A1570088316D60783127108031846
:10146000013E8316D70758088312F00083165908E7
:101470008312F10083165A088312F20083165B0868
:101480008312F300831653088312F4008316540862
:101490008312F5000030F51BFF30F600F7008A11CB
:1014A00038218A1570088316D800831271088316B4
:1014B000D900831272088316DA0083127308831628
:1014C000DB00CA2A0230E4005C08E500AC30E6002C
:1014D0008A11F1208A15DC0358088312F000831664
:1014E00059088312F1000730F4000030F5008A112A
:1014F0006F218A1570088316D607831271080318A6
:10150000013E8316D70758088312F0008316590846
:101510008312F10083165A088312F20083165B08C7
:101520008312F300831653088312F40083165408C1
:101530008312F5000030F51BFF30F600F7008A112A
:1015400038218A1570088316D80083127108831613
:10155000D900831272088316DA0083127308831687
:10156000DB00CA2A5508023A0319D7285508033A5E
:10157000031923295508053A031973295508063A12
:101580000319C2295508073A0319122A5508093ABE
:101590000319622A80305C068312F0008030063A1C
:1015A00070020318DC2A831656088312F000831693
:1015B00057088312F100B42D003083165406031D22
:1015C000E32A08305306031DE62A1D288C2B02301F
:1015D000E4005C08E500AE30E6008A11F1208A15CF
:1015E000DC0303308312F200831658088312F000E4
:1015F000831659088312F10072080319042BF00DA9
:10160000F10D7010FF3EFD2A70088316D607831275
:1016100071080318013E8316D70758088312F0009B
:10162000831659088312F10083165A088312F200B8
:1016300083165B088312F300831653088312F400A9
:10164000831654088312F5000030F51BFF30F600B6
:10165000F7008A1138218A1570088316D800831282
:1016600071088316D900831272088316DA00831278
:1016700073088316DB00942B0230E4005C08E5005D
:101680006A30E6008A11F1208A15DC0358088312BB
:10169000F000831659088312F1000930F40000307D
:1016A000F5008A116F218A1570088316D6078312F8
:1016B00071080318013E8316D70758088312F000FB
:1016C000831659088312F10083165A088312F20018
:1016D00083165B088312F300831653088312F40009
:1016E000831654088312F5000030F51BFF30F60016
:1016F000F7008A1138218A1570088316D8008312E2
:1017000071088316D900831272088316DA008312D7
:1017100073088316DB00942B55080A3A0319E72A4D
:1017200055080B3A03193C2B80305C068312F000FD
:101730008030063A70020318A62B831656088312CF
:10174000F000831657088312F100B42D882D023063
:101750008316E4005C08E5006C30E6008A11F12095
:101760008A15DC0358088312F00083165908831287
:10177000F1000A30F4000030F5008A116F218A155B
:1017800070088316D607831271080318013E83166A
:10179000D70758088312F000831659088312F10006
:1017A00083165A088312F20083165B088312F30033
:1017B000831653088312F400831654088312F5002D
:1017C0000030F51BFF30F600F7008A1138218A152A
:1017D00070088316D800831271088316D90083120B
:1017E00072088316DA00831273088316DB00A12DBA
:1017F0000230E4005C08E5006630E6008A11F12062
:101800008A15DC0358088312F000831659088312E6
:10181000F1000B30F4000030F5008A116F218A15B9
:1018200070088316D607831271080318013E8316C9
:10183000D70758088312F000831659088312F10065
:1018400083165A088312F20083165B088312F30092
:10185000831653088312F400831654088312F5008C
:101860000030F51BFF30F600F7008A1138218A1589
:1018700070088316D800831271088316D90083126A
:1018800072088316DA00831273088316DB00A12D19
:101890000230E4005C08E5006830E6008A11F120BF
:1018A0008A15DC0358088312F00083165908831246
:1018B000F1000C30F4000030F5008A116F218A1518
:1018C00070088316D607831271080318013E831629
:1018D000D70758088312F000831659088312F100C5
:1018E00083165A088312F20083165B088312F300F2
:1018F000831653088312F400831654088312F500EC
:101900000030F51BFF30F600F7008A1138218A15E8
:1019100070088316D800831271088316D9008312C9
:1019200072088316DA00831273088316DB00A12D78
:101930000230E4005C08E500A030E6008A11F120E6
:101940008A15DC0358088312F000831659088312A5
:10195000F1000D30F4000030F5008A116F218A1576
:1019600070088316D607831271080318013E831688
:10197000D70758088312F000831659088312F10024
:1019800083165A088312F20083165B088312F30051
:10199000831653088312F400831654088312F5004B
:1019A0000030F51BFF30F600F7008A1138218A1548
:1019B00070088316D800831271088316D900831229
:1019C00072088316DA00831273088316DB00A12DD8
:1019D0000230E4005C08E500A230E6008A11F12044
:1019E0008A15DC0358088312F00083165908831205
:1019F000F1000E30F4000030F5008A116F218A15D5
:101A000070088316D607831271080318013E8316E7
:101A1000D70758088312F000831659088312F10083
:101A200083165A088312F20083165B088312F300B0
:101A3000831653088312F400831654088312F500AA
:101A40000030F51BFF30F600F7008A1138218A15A7
:101A500070088316D800831271088316D900831288
:101A600072088316DA00831273088316DB00A12D37
:101A70000230E4005C08E5006E30E6008A11F120D7
:101A80008A15DC0358088312F00083165908831264
:101A9000F1000F30F4000030F5008A116F218A1533
:101AA00070088316D607831271080318013E831647
:101AB000D70758088312F000831659088312F100E3
:101AC00083165A088312F20083165B088312F30010
:101AD000831653088312F400831654088312F5000A
:101AE0000030F51BFF30F600F7008A1138218A1507
:101AF00070088316D800831271088316D9008312E8
:101B000072088316DA00831273088316DB00A12D96
:101B100083165508043A0319A72B5508083A0319E8
:101B2000F82B55080C3A0319482C5508103A03199C
:101B3000982C55080F3A0319E82C55080D3A03194B
:101B4000382D80305C068312F0008030063A700237
:101B50000318B32D831656088312F0008316570816
:0A1B60008312F100B42D1D280800C7
:101B6A008A11CE278A158A11DF258A158A114326FA
:101B7A008A15013083160313ED008A111A208A157B
:101B8A008A11BA258A158A11BE268A15632E8A11E8
:101B9A008A248A15182E8A11E6238A157008831654
:101BAA00D300831271088316D4000230D5000030A6
:101BBA00D6008A112F228A153A2E8A11E6238A150F
:101BCA0070088316D300831271088316D4000A3072
:101BDA00D5000030D6008A112F228A153A2E8A1192
:101BEA00E6238A1570088316D300831271088316B8
:101BFA00D4000830D5000030D6008A112F228A1569
:101C0A003A2E8A11E6238A1570088316D3008312A6
:101C1A0071088316D4001030D5000030D6008A111E
:101C2A002F228A153A2E8316031300303506031D18
:101C3A00202E003034060319D02D00303506031D3E
:101C4A00282E013034060319E22D00303506031D13
:101C5A00302E023034060319F42D00303506031DE8
:101C6A00382E033034060319062E0130ED008A118E
:101C7A001A208A1502308316E4000130E5002A3062
:101C8A00E6008A11F1208A15702E8A1122248A15FB
:101C9A00702E8A11E9258A15013083160313ED0087
:101CAA008A111A208A153E0803195F2E8A11CA243E
:101CBA008A15622E8A11CA248A15702E8312450843
:101CCA00003A0319CC2D4508013A03194A2E450852
:101CDA00023A03194E2E8A1114228A1570087104C9
:0A1CEA00031D782E702EBB2D792EFD
:040F720044340034CF
:040F760045340034CA
:040F7A0033340034D8
:040F7E0034340034D3
:040F820031340034D2
:040F860032340034CD
:040F8A0037340034C4
:040F8E0038340034BF
:040F920035340034BE
:040F960036340034B9
:101CFA004F34703465347234613463346A34613415
:041D0A003A34003433
:101D0E000034003400340034003400340034003425
:061D1E0000340034003423
:021D2400003489
:021D2600003487
:041D280052340034FD
:0A1D2C004E3455344D343A3400347F
:021D3600003477
:041D38004C340034F3
:041D3C00003400343B
:041D40000034003437
:021D4400003469
:101D460049344E34203454345934503445343A34BA
:021D5600003457
:101D58004F34553454342034543459345034453481
:041D68003A340034D5
:041D6C00003400340B
:101D700049344E34203454345934503445343A3490
:021D800000342D
:041D820030340034C5
:041D860042340034AF
:041D8A0043340034AA
:041D8E0039340034B0
:041D920041340034A4
:041D9600463400349B
:02400E005A0056
:00000001FF
